:020000040800F2
:100000007806002055020008D50B0008CD0B00082B
:10001000D10B00085D030008F90B00080000000088
:10002000000000000000000000000000DD0B0008E0
:100030006103000800000000D90B0008E10B000874
:100040006F0200086F0200086F0200086F020008CC
:100050006F0200086F0200086F0200086F020008BC
:100060006F0200086F0200086F0200086F020008AC
:100070006F0200086F0200086F0200086F0200089C
:100080006F0200086F0200086F0200086F0200088C
:100090006F0200086F0200086F0200086F0200087C
:1000A0006F0200086F0200086F0200086F0200086C
:1000B0006F0200086F0200086F0200086F0200085C
:1000C0006F0200086F0200086F0200086F0200084C
:1000D0006F0200086F0200086F0200086F0200083C
:1000E0006F0200086F0200086F0200086F0200082C
:1000F0006F0200086F0200086F0200086F0200081C
:100100000000000000000000000000006F02000876
:100110006F0200086F0200086F0200086F020008FB
:100120006F0200086F0200086F0200086F020008EB
:100130006F0200086F0200080000000000000000CD
:100140006F0200086F0200086F0200080000000044
:10015000000000000000000000000000000000009F
:1001600000000000000000006F0200086F0200089D
:100170006F02000800000000000000000000000006
:10018000000000006F02000800F002F800F052F8D2
:1001900014A696E8000CB244B344DA4501D100F04D
:1001A00049F8BAE80F000FA696E83000A5EB040561
:1001B00004EB0607AAEB0704A7F101074FEA1515A0
:1001C0004FEA3414A4F10104AC4201D300F032F838
:1001D00013F0010F18BFFB1A43F0010300F001F800
:1001E000DBE71847240B0000440B0000103A24BF43
:1001F00078C878C1FAD8520724BF30C830C144BF8C
:1002000004680C6070470000704700000023002461
:1002100000250026103A28BF78C1FBD8520728BF16
:1002200030C148BF0B6070471FB500F048FD1FBDCF
:1002300010B510BD00F058F81146FFF7F5FF00F0BB
:10024000DDFC00F076F803B4FFF7F2FF03BC00F02A
:100250007DF800000948804709480047FEE7FEE7AF
:10026000FEE7FEE7FEE7FEE7FEE7FEE7FEE7FEE766
:1002700004480549054A064B70470000E50B000895
:10028000890100087800002078060020780200200C
:10029000780200204FF0000200B5134694469646BF
:1002A000203922BFA0E80C50A0E80C50B1F1200189
:1002B000BFF4F7AF090728BFA0E80C5048BF0CC037
:1002C0005DF804EB890028BF40F8042B08BF704795
:1002D00048BF20F8022B11F0804F18BF00F8012B07
:1002E0007047704770477047754600F02BF8AE4670
:1002F00005006946534620F00700854618B020B532
:10030000FFF7B6FFBDE820404FF000064FF00007B2
:100310004FF000084FF0000BAC46ACE8C009ACE869
:10032000C009ACE8C009ACE8C00921F007018D465E
:10033000704710B50446AFF300802046BDE810407A
:10034000FFF781BF004870471000002001491820C6
:10035000ABBEFEE72600020070470000FEE700008B
:10036000704700002DE9F04F82B00D68002D00F0BD
:10037000C58000F13847860546EA972741F2000616
:10038000C4F60006052240F2004EB04208BF042227
:10039000C4F2010E042F38BF3A464FF0000C01247E
:1003A00000270026009209E00D68013635FA06F2B2
:1003B00007F102070CF1040C00F0A08004FA06FB20
:1003C00015EA0B08F0D0D1F804A003230AF00305C6
:1003D0006A1EBB40012A6FEA03090FD88268CB6806
:1003E00002EA0902BB401A4382604268CAF3001362
:1003F00022EA0B02B3401A43426003E0032D01D10D
:1004000003251FE0C2688B6802EA0902BB401A4359
:10041000022DC26016D16FF0030202EA56020244B6
:100420000CF01C050F23D2F820A003FA05FB0B6982
:100430002AEA0B0AAB4043EA0A031362D1F804A08C
:100440000AF00305026805FA07F302EA09021A43F3
:100450001AF4403F0260A7D041F21803C4F202032D
:100460001A684FF6084A42F001021A601A68CFF67D
:10047000FF7A02F001020192019A26F0030272440F
:1004800052F80A900CF00C050F23009CAB4029EAAF
:10049000030304FA05F52B4342F80A30DEF808207E
:1004A0004B6842EA080540F20C49DC0258BF22EAD8
:1004B0000805CEF80850C4F20109D9F800209D02C1
:1004C00042EA080458BF22EA0804C9F80040DEF8EE
:1004D00004209D0342EA080458BF22EA0804CEF82B
:1004E0000440DEF80020DB0342EA080458BF22EA99
:1004F0000804CEF80040012456E700BF02B0BDE872
:10050000F08F00001823002A08BF2823C15070472D
:1005100040F27000C2F200000068704740F2000034
:1005200040F27001C2F20000C2F2000100780A68D5
:10053000104408607047000080B542F20000C4F229
:100540000200016841F010010160032000F072F820
:100550000F2000F005F800F027F8002080BD000013
:1005600070B540F20006C2F2000640F2080132788F
:10057000C2F200014FF47A730968B3FBF2F2044649
:10058000B1FBF2F1084600F00BFB0F2C4FF0010518
:1005900008D838B94FF0FF3021460022002500F07E
:1005A0001DF87460284670BD82B041F21800C4F294
:1005B0000200016841F001010160016801F00101E0
:1005C00001910199416841F080514160406800F01B
:1005D00080500090009802B07047000010B54EF6B1
:1005E0000C5CCEF2000CDCF80030C3F3022E8EF06F
:1005F0000704042C28BF0424BEF103034FF0FF3E80
:100600000EFA04F438BF0023A14399400EFA03F315
:100610009A43114300F00F0200F160430901043ACC
:1006200003F564436244002848BF02F10C031970CB
:1006300010BD00004EF60C51CEF200010A684FF6D4
:10064000FF031A4060F30A2242F0806040F0FD7020
:1006500008607047002804BF012070472DE9F0436F
:1006600081B042F20008C4F202080446D8F8000043
:100670000D4600F0070088420CD2D8F8000020F0A8
:1006800007002843C8F80000D8F8000000F0070071
:10069000A8425ED1206841F204098107C4F2020930
:1006A00007D5D9F80010A26821F0F0011143C9F86C
:1006B0000010C00744D1D8F8000000F00700A8429D
:1006C0000CD9D8F8000020F007002843C8F8000033
:1006D000D8F8000000F00700A8423AD1206841078E
:1006E00007D5D9F80010E26821F4E0611143C9F898
:1006F0000010000708D5D9F80000216920F46050E7
:1007000040EAC100C9F80000D9F8002002F00C004E
:10071000082841F20020C0F27A0051D140F6E843A7
:10072000C2F38341C0F60003595CD9F82830D203E4
:100730003CD440F60010C0F23D00484340E000BF0A
:10074000606802280AD001282AD159F8041C8903BC
:1007500008D4012001B0BDE8F08300BF59F8041CA3
:100760008901F6D5D9F8001021F003010843C9F832
:100770000000FFF7CDFE064641F28837D9F80000A9
:10078000616800F00C00B0EB810F94D0FFF7C0FE61
:10079000801BB842F2D9032001B0BDE8F08300BF4E
:1007A00059F8041C8907D4D5DCE700BF03F00F0219
:1007B00040F6F843C0F600039A5CB0FBF2F0484301
:1007C000D9F8001040F6D842C1F30311C0F6000278
:1007D000515C40F2080220FA01F140F20400C2F23A
:1007E00000000068C2F200021160FFF7B9FE0020AD
:1007F00001B0BDE8F0830000002804BF012070476D
:100800002DE9F04182B00446007841F20006C007AD
:10081000C4F202060CD0706800F00C00042840F00E
:100820007F803068800303D56068002800F0348141
:10083000207880071BD5706810F00C0F09D0706805
:1008400000F00C00082840F09F807068C00300F1A1
:100850009B803068800703D52069012840F01C8107
:100860003068616920F0F80040EAC100306020780B
:10087000000713D4207840072AD4E569002D00F042
:100880000681706800F00C00082840F0C180012D3E
:1008900040F0F280012002B0BDE8F081A06900289C
:1008A00000F09E800020C4F242200121C0F8801494
:1008B000FFF72EFE054600BF706A8007DAD4FFF707
:1008C00027FE401B0228F7D9032002B0BDE8F081C3
:1008D000F0695FEAC00808D4F06940F08050F06128
:1008E000F06900F080500190019847F20007C4F2CF
:1008F00000073868C00561D4386840F480703860FB
:10090000FFF706FE054600BF3868C00556D4FFF75E
:10091000FFFD401B6428F7D9032002B0BDE8F08139
:10092000706800F00C00082803D17068C0033FF520
:1009300078AF6068B0F5A02F00F0F080B0F5803F90
:1009400000F0F080002840F0F180306820F4803022
:100950003060306820F480203060F06AA16820F0B8
:100960000F000843F062FFF7D3FD054630688003AF
:100970007FF55EAFFFF7CCFD401B64284FF003000E
:10098000F4D902B0BDE8F0812069002840F20000EF
:10099000C4F242205ED001210160FFF7B9FD054697
:1009A000306880073FF55CAFFFF7B2FD401B0228BF
:1009B000F6D9032002B0BDE8F08100BFE06800284E
:1009C0006ED0052800F08680012800F08780306A0C
:1009D00020F001003062306A20F0040081E000BFA6
:1009E0000020C4F242200021C0F88014FFF790FDDF
:1009F000054600BF706A80077FF53CAFFFF788FDB2
:100A0000401B0228F6D9032002B0BDE8F08100BFE8
:100A10000027C4F2422700203866FFF779FD022D37
:100A200005460BD13068800140F1A080FFF770FDD2
:100A3000401B02284FF00300F4D9A2E73068800180
:100A400025D5FFF765FD401B02284FF00300F5D9BF
:100A500097E700BF00210160FFF75AFD054600BF80
:100A6000306880077FF503AFFFF752FD401B022877
:100A70004FF00300F4D984E77068216A00F48032F3
:100A80008A4209D1616A00F47010884204D10020C2
:100A900002B0BDE8F08100BF012002B0BDE8F081E6
:100AA000306A20F001003062306A20F004003062C9
:100AB000FFF72EFD054641F2883700BF306A8007F8
:100AC00022D5FFF725FD401BB8424FF00300F5D9B2
:100AD00057E700BF306A40F004003062306A40F0EF
:100AE00001003062FFF714FD054641F2883700BF70
:100AF000306A800708D4FFF70BFD401BB842F7D9D6
:100B0000032002B0BDE8F081B8F1000F3FF5B5AEAB
:100B1000F06920F08050F061AFE600BF306840F42B
:100B200080203060306840F4803006E0306820F487
:100B300080303060306820F480203060F06AA16836
:100B400020F00F000843F062FFF7E2FC054600BF0B
:100B5000306880033FF56CAEFFF7DAFC401B642879
:100B6000F6D9032002B0BDE8F08100BF7068D4E977
:100B7000081220F474101043084370600120386696
:100B8000FFF7C6FC044600BF306880013FF57FAF29
:100B9000FFF7BEFC001B02284FF00300F4D9F0E67B
:100BA000411E0020B0EB116F1CBF012070474EF2B8
:100BB0001002CEF2000251604EF62351CEF2000137
:100BC000F0230B700721906011607047FEE7000072
:100BD000FEE70000FEE700007047000070470000DD
:100BE000FFF79CBC4EF68850CEF20000016841F43D
:100BF0007001016070470000FEE7000090B0FFF751
:100C00009BFC06AC201D2421FFF744FB022006902C
:100C100001200A9010200B90002520460D95FFF72B
:100C2000EBFD28B1EFF3108072B600BFFEE700BF06
:100C30000F20CDE9010501A80021CDE90355059557
:100C4000FFF708FD20B1EFF3108072B6FEE700BF9A
:100C5000002541F214000A95C4F20200016841F235
:100C6000000441F4800101600168C4F6000401F44D
:100C70008001019101990168002241F40011016095
:100C800001684FF4807601F4001101910199016827
:100C900041F40031016000684FF4807100F40030CD
:100CA000019001982046FFF72DFC0120CDE90705B2
:100CB00006A9204606960995FFF754FBFEE7F1EEDC
:100CC000100A4FF6FF71C0F2C03120EA010040F077
:100CD0004070E1EE100A70470000000000000000C4
:100CE00001020304060708090203040506070809B0
:100CF0000A0B0C0D0E0F1010010203040506070865
:100D0000090A0B0C0D0E0F10280D00080000002022
:100D100010000000EC010008380D00081000002051
:100D2000680600000C02000801000000100000002E
:080D300000127A00000000002F
:040000050800018965
:00000001FF
